{
  "contractName": "InitializableUpgradeabilityProxy",
  "abi": [
    {
      "anonymous": false,
      "inputs": [
        {
          "indexed": true,
          "internalType": "address",
          "name": "implementation",
          "type": "address"
        }
      ],
      "name": "Upgraded",
      "type": "event"
    },
    {
      "stateMutability": "payable",
      "type": "fallback"
    },
    {
      "stateMutability": "payable",
      "type": "receive"
    },
    {
      "inputs": [
        {
          "internalType": "address",
          "name": "_logic",
          "type": "address"
        },
        {
          "internalType": "bytes",
          "name": "_data",
          "type": "bytes"
        }
      ],
      "name": "initialize",
      "outputs": [],
      "stateMutability": "payable",
      "type": "function"
    }
  ],
  "bytecode": "0x608060405234801561001057600080fd5b50610408806100206000396000f3fe6080604052600436106100225760003560e01c8063d1f578941461003b57610031565b366100315761002f610116565b005b610039610116565b005b6101146004803603604081101561005157600080fd5b81019080803573ffffffffffffffffffffffffffffffffffffffff1690602001909291908035906020019064010000000081111561008e57600080fd5b8201836020820111156100a057600080fd5b803590602001918460018302840111640100000000831117156100c257600080fd5b91908080601f016020809104026020016040519081016040528093929190818152602001838380828437600081840152601f19601f820116905080830192505050505050509192919290505050610130565b005b61011e61029e565b61012e6101296102a0565b6102d1565b565b600073ffffffffffffffffffffffffffffffffffffffff166101506102a0565b73ffffffffffffffffffffffffffffffffffffffff161461017057600080fd5b60017f360894a13ba1a3210667c828492db98dca3e2076cc3735a920a3ca505d382bbd60001c0360001b7f360894a13ba1a3210667c828492db98dca3e2076cc3735a920a3ca505d382bbc60001b146101c557fe5b6101ce826102f7565b60008151111561029a5760008273ffffffffffffffffffffffffffffffffffffffff16826040518082805190602001908083835b602083106102255780518252602082019150602081019050602083039250610202565b6001836020036101000a038019825116818451168082178552505050505050905001915050600060405180830381855af49150503d8060008114610285576040519150601f19603f3d011682016040523d82523d6000602084013e61028a565b606091505b505090508061029857600080fd5b505b5050565b565b6000807f360894a13ba1a3210667c828492db98dca3e2076cc3735a920a3ca505d382bbc60001b9050805491505090565b3660008037600080366000845af43d6000803e80600081146102f2573d6000f35b3d6000fd5b61030081610384565b610355576040517f08c379a000000000000000000000000000000000000000000000000000000000815260040180806020018281038252603b815260200180610398603b913960400191505060405180910390fd5b60007f360894a13ba1a3210667c828492db98dca3e2076cc3735a920a3ca505d382bbc60001b90508181555050565b600080823b90506000811191505091905056fe43616e6e6f742073657420612070726f787920696d706c656d656e746174696f6e20746f2061206e6f6e2d636f6e74726163742061646472657373a26469706673582212201d43ec7264fe012326dd9047881bce8309da576851081d4c2a6652f53c24980064736f6c63430007000033",
  "immutableReferences": {},
  "source": "/* SPDX-License-Identifier: UNLICENSED */\n\npragma solidity ^0.7.0;\n\nimport './BaseUpgradeabilityProxy.sol';\n\n/**\n * @title InitializableUpgradeabilityProxy\n * @dev Extends BaseUpgradeabilityProxy with an initializer for initializing\n * implementation and init data.\n */\ncontract InitializableUpgradeabilityProxy is BaseUpgradeabilityProxy {\n  /**\n   * @dev Contract initializer.\n   * @param _logic Address of the initial implementation.\n   * @param _data Data to send as msg.data to the implementation to initialize the proxied contract.\n   * It should include the signature and the parameters of the function to be called, as described in\n   * https://solidity.readthedocs.io/en/v0.4.24/abi-spec.html#function-selector-and-argument-encoding.\n   * This parameter is optional, if no data is given the initialization call to proxied contract will be skipped.\n   */\n\n   /*\n    The deployed election state contract will inherit the proxy functionality contract.\n\n    So, when we create our next election state contract from our contract factory, we will run the intialize\n    function in the state contract. This initialize function will have to do a variety of tasks including:\n\n      - Set the owner for the state contract\n      - Initialize constructor functions of the the parent contracts\n      - electionName = _electionName;\n      - state = State.Populating;\n      - ids = _ids;\n      - amounts = _amounts;\n   \n    */\n  function initialize(address _logic, bytes memory _data) public payable {\n    // ensures that the implementation contract hasn't been deployed yet\n    // This also ensures that the intialize function can only be run once per proxy contract\n    // (Because the implementation contract address is stored in the proxy contract)\n\n    require(_implementation() == address(0));\n\n    // Ensures that the address for the implementation contract is as defined in the standard\n\n    \n    assert(IMPLEMENTATION_SLOT == bytes32(uint256(keccak256('eip1967.proxy.implementation')) - 1));\n\n    // change address for implementation contract\n    _setImplementation(_logic);\n    // Run only if there is an encoded function call in the payload\n    if(_data.length > 0) {\n      \n      // <address>.delegatecall(bytes memory) returns (bool, bytes memory)\n\n      // issue low-level DELEGATECALL with the given payload, returns success condition and return data,\n      // forwards all available gas, adjustable\n\n      // code at the target address is executed in the context of the calling contract and msg.sender\n      // and msg.value do not change their values.\n      \n      // call implementation contract with the parameter data that will set the state variables in the proxy contract\n      (bool success,) = _logic.delegatecall(_data);\n      require(success);\n    }\n  }\n}",
  "sourcePath": "C:\\Users\\cjd9s\\OneDrive\\Documents\\Ethereum\\ProxyErrorWeb3jsDemo\\contracts\\Upgradeability\\InitializableUpgradeabilityProxy.sol",
  "compiler": {
    "name": "solc",
    "version": "0.7.0+commit.9e61f92b.Emscripten.clang"
  },
  "schemaVersion": "3.3.3",
  "updatedAt": "2021-02-12T13:49:05.419Z",
  "devdoc": {
    "details": "Extends BaseUpgradeabilityProxy with an initializer for initializing implementation and init data.",
    "kind": "dev",
    "methods": {
      "initialize(address,bytes)": {
        "details": "Contract initializer.",
        "params": {
          "_data": "Data to send as msg.data to the implementation to initialize the proxied contract. It should include the signature and the parameters of the function to be called, as described in https://solidity.readthedocs.io/en/v0.4.24/abi-spec.html#function-selector-and-argument-encoding. This parameter is optional, if no data is given the initialization call to proxied contract will be skipped.",
          "_logic": "Address of the initial implementation."
        }
      }
    },
    "title": "InitializableUpgradeabilityProxy",
    "version": 1
  },
  "userdoc": {
    "kind": "user",
    "methods": {},
    "version": 1
  }
}